{
  "_format": "hh-sol-artifact-1",
  "contractName": "SkillTrade",
  "sourceName": "contracts/SkillTrade.sol",
  "abi": [
    {
      "inputs": [
        {
          "internalType": "address",
          "name": "_owner",
          "type": "address"
        }
      ],
      "stateMutability": "nonpayable",
      "type": "constructor"
    },
    {
      "anonymous": false,
      "inputs": [
        {
          "indexed": true,
          "internalType": "uint256",
          "name": "dealId",
          "type": "uint256"
        },
        {
          "indexed": false,
          "internalType": "address",
          "name": "canceller",
          "type": "address"
        },
        {
          "indexed": false,
          "internalType": "uint256",
          "name": "refund",
          "type": "uint256"
        },
        {
          "indexed": false,
          "internalType": "uint256",
          "name": "reward",
          "type": "uint256"
        },
        {
          "indexed": false,
          "internalType": "uint256",
          "name": "escrowFee",
          "type": "uint256"
        }
      ],
      "name": "DealCancelled",
      "type": "event"
    },
    {
      "anonymous": false,
      "inputs": [
        {
          "indexed": true,
          "internalType": "uint256",
          "name": "dealId",
          "type": "uint256"
        }
      ],
      "name": "DealCompleted",
      "type": "event"
    },
    {
      "anonymous": false,
      "inputs": [
        {
          "indexed": true,
          "internalType": "uint256",
          "name": "dealId",
          "type": "uint256"
        },
        {
          "indexed": false,
          "internalType": "address",
          "name": "by",
          "type": "address"
        }
      ],
      "name": "DealConfirmed",
      "type": "event"
    },
    {
      "anonymous": false,
      "inputs": [
        {
          "indexed": true,
          "internalType": "uint256",
          "name": "dealId",
          "type": "uint256"
        },
        {
          "indexed": true,
          "internalType": "address",
          "name": "requester",
          "type": "address"
        },
        {
          "indexed": true,
          "internalType": "address",
          "name": "responder",
          "type": "address"
        }
      ],
      "name": "DealInitiated",
      "type": "event"
    },
    {
      "anonymous": false,
      "inputs": [
        {
          "indexed": true,
          "internalType": "uint256",
          "name": "dealId",
          "type": "uint256"
        },
        {
          "indexed": true,
          "internalType": "address",
          "name": "depositor",
          "type": "address"
        },
        {
          "indexed": false,
          "internalType": "uint256",
          "name": "amount",
          "type": "uint256"
        }
      ],
      "name": "DepositMade",
      "type": "event"
    },
    {
      "inputs": [
        {
          "internalType": "uint256",
          "name": "_dealId",
          "type": "uint256"
        }
      ],
      "name": "cancelDeal",
      "outputs": [],
      "stateMutability": "nonpayable",
      "type": "function"
    },
    {
      "inputs": [
        {
          "internalType": "uint256",
          "name": "_dealId",
          "type": "uint256"
        }
      ],
      "name": "confirmCompletion",
      "outputs": [],
      "stateMutability": "nonpayable",
      "type": "function"
    },
    {
      "inputs": [],
      "name": "dealCounter",
      "outputs": [
        {
          "internalType": "uint256",
          "name": "",
          "type": "uint256"
        }
      ],
      "stateMutability": "view",
      "type": "function"
    },
    {
      "inputs": [
        {
          "internalType": "uint256",
          "name": "",
          "type": "uint256"
        }
      ],
      "name": "deals",
      "outputs": [
        {
          "internalType": "address",
          "name": "requester",
          "type": "address"
        },
        {
          "internalType": "address",
          "name": "responder",
          "type": "address"
        },
        {
          "internalType": "uint256",
          "name": "requesterAmount",
          "type": "uint256"
        },
        {
          "internalType": "uint256",
          "name": "responderAmount",
          "type": "uint256"
        },
        {
          "internalType": "bool",
          "name": "requesterDeposited",
          "type": "bool"
        },
        {
          "internalType": "bool",
          "name": "responderDeposited",
          "type": "bool"
        },
        {
          "internalType": "bool",
          "name": "requesterConfirmed",
          "type": "bool"
        },
        {
          "internalType": "bool",
          "name": "responderConfirmed",
          "type": "bool"
        },
        {
          "internalType": "enum SkillTrade.Status",
          "name": "status",
          "type": "uint8"
        }
      ],
      "stateMutability": "view",
      "type": "function"
    },
    {
      "inputs": [
        {
          "internalType": "uint256",
          "name": "_dealId",
          "type": "uint256"
        }
      ],
      "name": "deposit",
      "outputs": [],
      "stateMutability": "payable",
      "type": "function"
    },
    {
      "inputs": [
        {
          "internalType": "address",
          "name": "_responder",
          "type": "address"
        }
      ],
      "name": "initiateDeal",
      "outputs": [
        {
          "internalType": "uint256",
          "name": "",
          "type": "uint256"
        }
      ],
      "stateMutability": "nonpayable",
      "type": "function"
    },
    {
      "inputs": [],
      "name": "owner",
      "outputs": [
        {
          "internalType": "address",
          "name": "",
          "type": "address"
        }
      ],
      "stateMutability": "view",
      "type": "function"
    },
    {
      "inputs": [
        {
          "internalType": "address",
          "name": "_newOwner",
          "type": "address"
        }
      ],
      "name": "updateOwner",
      "outputs": [],
      "stateMutability": "nonpayable",
      "type": "function"
    }
  ],
  "bytecode": "0x608060405234801561001057600080fd5b50604051610fa6380380610fa683398101604081905261002f9161009f565b6001600160a01b03811661007a5760405162461bcd60e51b815260206004820152600e60248201526d1bdddb995c881c995c5d5a5c995960921b604482015260640160405180910390fd5b600080546001600160a01b0319166001600160a01b03929092169190911790556100cf565b6000602082840312156100b157600080fd5b81516001600160a01b03811681146100c857600080fd5b9392505050565b610ec8806100de6000396000f3fe60806040526004361061007b5760003560e01c80638da5cb5b1161004e5780638da5cb5b1461018557806394aeb613146101bd578063b37c2503146101dd578063b6b55f25146101fd57600080fd5b806303988f8414610080578063217328b61461011f57806331ea1a3914610143578063880cdc3114610165575b600080fd5b34801561008c57600080fd5b5061010161009b366004610d2b565b6002602081905260009182526040909120805460018201549282015460038301546004909301546001600160a01b039283169490921692909160ff80821691610100810482169162010000820481169163010000008104821691600160201b9091041689565b60405161011699989796959493929190610d5a565b60405180910390f35b34801561012b57600080fd5b5061013560015481565b604051908152602001610116565b34801561014f57600080fd5b5061016361015e366004610d2b565b610210565b005b34801561017157600080fd5b50610163610180366004610dd4565b6105a0565b34801561019157600080fd5b506000546101a5906001600160a01b031681565b6040516001600160a01b039091168152602001610116565b3480156101c957600080fd5b506101636101d8366004610d2b565b61064f565b3480156101e957600080fd5b506101356101f8366004610dd4565b6108a9565b61016361020b366004610d2b565b610a97565b600081815260026020526040902080548291906001600160a01b0316331480610245575060018101546001600160a01b031633145b6102885760405162461bcd60e51b815260206004820152600f60248201526e1b9bdd081c185c9d1a58da5c185b9d608a1b60448201526064015b60405180910390fd5b6000838152600260205260408120906004820154600160201b900460ff1660038111156102b7576102b7610d44565b14806102e2575060016004820154600160201b900460ff1660038111156102e0576102e0610d44565b145b6103225760405162461bcd60e51b815260206004820152601160248201527063616e6e6f742063616e63656c206e6f7760781b604482015260640161027f565b805433906000906001600160a01b031682146103485782546001600160a01b0316610357565b60018301546001600160a01b03165b83549091506000906001600160a01b0384811691161461037b578360030154610381565b83600201545b84549091506000906001600160a01b038581169116146103a55784600201546103ab565b84600301545b9050600082116103fd5760405162461bcd60e51b815260206004820152601b60248201527f63616e63656c6c657220686173206e6f74206465706f73697465640000000000604482015260640161027f565b6000606461040c846032610e1a565b6104169190610e31565b905060006064610427856028610e1a565b6104319190610e31565b90506000816104408487610e53565b61044a9190610e53565b60048901805464ff000000001916640300000000179055905082156104a1576040516001600160a01b0388169084156108fc029085906000818181858888f1935050505015801561049f573d6000803e3d6000fd5b505b6000841180156104b15750600082115b156104f2576040516001600160a01b0387169083156108fc029084906000818181858888f193505050501580156104ec573d6000803e3d6000fd5b506104ff565b6104fc8282610e66565b90505b801561054057600080546040516001600160a01b039091169183156108fc02918491818181858888f1935050505015801561053e573d6000803e3d6000fd5b505b604080516001600160a01b038916815260208101859052908101839052606081018290528b907f2ab4b7859954d81e65bd54838daa635cb83c7afecdb67b4de9fcadecf88cc49a9060800160405180910390a25050505050505050505050565b6000546001600160a01b031633146105e75760405162461bcd60e51b815260206004820152600a60248201526937b7363c9037bbb732b960b11b604482015260640161027f565b6001600160a01b03811661062d5760405162461bcd60e51b815260206004820152600d60248201526c34b73b30b634b21037bbb732b960991b604482015260640161027f565b600080546001600160a01b0319166001600160a01b0392909216919091179055565b600081815260026020526040902080548291906001600160a01b0316331480610684575060018101546001600160a01b031633145b6106c25760405162461bcd60e51b815260206004820152600f60248201526e1b9bdd081c185c9d1a58da5c185b9d608a1b604482015260640161027f565b600083815260026020526040902060016004820154600160201b900460ff1660038111156106f2576106f2610d44565b146107315760405162461bcd60e51b815260206004820152600f60248201526e6465616c206e6f742061637469766560881b604482015260640161027f565b80546001600160a01b0316330361075a5760048101805462ff0000191662010000179055610770565b60048101805463ff000000191663010000001790555b60405133815284907fa64ae312332793d3680fff76a94d57f981669d7c584bc07f181163f4fbb25ebf9060200160405180910390a2600481015462010000900460ff1680156107ca575060048101546301000000900460ff165b156108a35760048101805464ff0000000019166402000000001790556002810154600382015480156108315782546040516001600160a01b039091169082156108fc029083906000818181858888f1935050505015801561082f573d6000803e3d6000fd5b505b81156108755760018301546040516001600160a01b039091169083156108fc029084906000818181858888f19350505050158015610873573d6000803e3d6000fd5b505b60405186907fe70f0403e69c896bbcf61b8ca0224ab04d6de1ade440bc896049efe6fe4e073190600090a250505b50505050565b60006001600160a01b0382166108f65760405162461bcd60e51b81526020600482015260126024820152711c995cdc1bdb99195c881c995c5d5a5c995960721b604482015260640161027f565b60408051610120810182523381526001600160a01b03841660208201526000918101829052606081018290526080810182905260a0810182905260c0810182905260e081018290529061010082015260018054600090815260026020818152604092839020855181546001600160a01b03199081166001600160a01b03928316178355928701519582018054909316951694909417905590830151908201556060820151600380830191909155608083015160048301805460a086015160c087015160e088015161ffff1990931694151561ff0019169490941761010091151582021763ffff00001916620100009415159490940263ff000000191693909317630100000091151591909102178082559185015192909164ff00000000191690600160201b908490811115610a2d57610a2d610d44565b0217905550506001546040516001600160a01b03851692503391907f1b2d92f025268d601250289d38eab166f0be172a96b85365a43e0bca15980a0090600090a460018054906000610a7e83610e79565b919050555060018054610a919190610e53565b92915050565b6000818152600260205260408120906004820154600160201b900460ff166003811115610ac657610ac6610d44565b1480610af1575060016004820154600160201b900460ff166003811115610aef57610aef610d44565b145b610b2f5760405162461bcd60e51b815260206004820152600f60248201526e6e6f74206465706f73697461626c6560881b604482015260640161027f565b80546001600160a01b0316331480610b53575060018101546001600160a01b031633145b610b8a5760405162461bcd60e51b81526020600482015260086024820152671b9bdd081c185c9d60c21b604482015260640161027f565b60003411610bc55760405162461bcd60e51b81526020600482015260086024820152670e6cadcc8408aa8960c31b604482015260640161027f565b80546001600160a01b03163303610c4557600481015460ff1615610c2b5760405162461bcd60e51b815260206004820152601b60248201527f72657175657374657220616c7265616479206465706f73697465640000000000604482015260640161027f565b34600282015560048101805460ff19166001179055610cb7565b6004810154610100900460ff1615610c9f5760405162461bcd60e51b815260206004820152601b60248201527f726573706f6e64657220616c7265616479206465706f73697465640000000000604482015260640161027f565b34600382015560048101805461ff0019166101001790555b600481015460ff168015610cd457506004810154610100900460ff165b15610cf05760048101805464ff000000001916600160201b1790555b604051348152339083907f377ef0adce1eae318afaad309c3b0f6c378fa1a294064deccda8d15ad28858eb9060200160405180910390a35050565b600060208284031215610d3d57600080fd5b5035919050565b634e487b7160e01b600052602160045260246000fd5b6001600160a01b038a81168252891660208201526040810188905260608101879052851515608082015284151560a082015283151560c082015282151560e0820152610120810160048310610dbf57634e487b7160e01b600052602160045260246000fd5b826101008301529a9950505050505050505050565b600060208284031215610de657600080fd5b81356001600160a01b0381168114610dfd57600080fd5b9392505050565b634e487b7160e01b600052601160045260246000fd5b8082028115828204841417610a9157610a91610e04565b600082610e4e57634e487b7160e01b600052601260045260246000fd5b500490565b81810381811115610a9157610a91610e04565b80820180821115610a9157610a91610e04565b600060018201610e8b57610e8b610e04565b506001019056fea2646970667358221220d3ef8e76c66fec2640d36f6770b98e5cbf3ca7fca64c3dcdd4bcb4536ad87b9064736f6c63430008130033",
  "linkReferences": {},
  "deployedLinkReferences": {}
}