{
  "_format": "hh-sol-artifact-1",
  "contractName": "SoulboundToken",
  "sourceName": "contracts/SoulboundToken.sol",
  "abi": [
    {
      "inputs": [],
      "stateMutability": "nonpayable",
      "type": "constructor"
    },
    {
      "anonymous": false,
      "inputs": [
        {
          "indexed": true,
          "internalType": "address",
          "name": "recipient",
          "type": "address"
        },
        {
          "indexed": true,
          "internalType": "uint256",
          "name": "tokenId",
          "type": "uint256"
        },
        {
          "indexed": true,
          "internalType": "enum SoulboundToken.AchievementType",
          "name": "achievementType",
          "type": "uint8"
        },
        {
          "indexed": false,
          "internalType": "string",
          "name": "title",
          "type": "string"
        },
        {
          "indexed": false,
          "internalType": "string",
          "name": "description",
          "type": "string"
        }
      ],
      "name": "AchievementMinted",
      "type": "event"
    },
    {
      "anonymous": false,
      "inputs": [
        {
          "indexed": true,
          "internalType": "uint256",
          "name": "tokenId",
          "type": "uint256"
        },
        {
          "indexed": true,
          "internalType": "address",
          "name": "verifier",
          "type": "address"
        }
      ],
      "name": "AchievementVerified",
      "type": "event"
    },
    {
      "anonymous": false,
      "inputs": [
        {
          "indexed": true,
          "internalType": "address",
          "name": "owner",
          "type": "address"
        },
        {
          "indexed": true,
          "internalType": "address",
          "name": "approved",
          "type": "address"
        },
        {
          "indexed": true,
          "internalType": "uint256",
          "name": "tokenId",
          "type": "uint256"
        }
      ],
      "name": "Approval",
      "type": "event"
    },
    {
      "anonymous": false,
      "inputs": [
        {
          "indexed": true,
          "internalType": "address",
          "name": "owner",
          "type": "address"
        },
        {
          "indexed": true,
          "internalType": "address",
          "name": "operator",
          "type": "address"
        },
        {
          "indexed": false,
          "internalType": "bool",
          "name": "approved",
          "type": "bool"
        }
      ],
      "name": "ApprovalForAll",
      "type": "event"
    },
    {
      "anonymous": false,
      "inputs": [
        {
          "indexed": true,
          "internalType": "address",
          "name": "developer",
          "type": "address"
        },
        {
          "indexed": false,
          "internalType": "bool",
          "name": "verified",
          "type": "bool"
        }
      ],
      "name": "DeveloperVerified",
      "type": "event"
    },
    {
      "anonymous": false,
      "inputs": [
        {
          "indexed": false,
          "internalType": "address",
          "name": "account",
          "type": "address"
        }
      ],
      "name": "Paused",
      "type": "event"
    },
    {
      "anonymous": false,
      "inputs": [
        {
          "indexed": true,
          "internalType": "bytes32",
          "name": "role",
          "type": "bytes32"
        },
        {
          "indexed": true,
          "internalType": "bytes32",
          "name": "previousAdminRole",
          "type": "bytes32"
        },
        {
          "indexed": true,
          "internalType": "bytes32",
          "name": "newAdminRole",
          "type": "bytes32"
        }
      ],
      "name": "RoleAdminChanged",
      "type": "event"
    },
    {
      "anonymous": false,
      "inputs": [
        {
          "indexed": true,
          "internalType": "bytes32",
          "name": "role",
          "type": "bytes32"
        },
        {
          "indexed": true,
          "internalType": "address",
          "name": "account",
          "type": "address"
        },
        {
          "indexed": true,
          "internalType": "address",
          "name": "sender",
          "type": "address"
        }
      ],
      "name": "RoleGranted",
      "type": "event"
    },
    {
      "anonymous": false,
      "inputs": [
        {
          "indexed": true,
          "internalType": "bytes32",
          "name": "role",
          "type": "bytes32"
        },
        {
          "indexed": true,
          "internalType": "address",
          "name": "account",
          "type": "address"
        },
        {
          "indexed": true,
          "internalType": "address",
          "name": "sender",
          "type": "address"
        }
      ],
      "name": "RoleRevoked",
      "type": "event"
    },
    {
      "anonymous": false,
      "inputs": [
        {
          "indexed": true,
          "internalType": "address",
          "name": "from",
          "type": "address"
        },
        {
          "indexed": true,
          "internalType": "address",
          "name": "to",
          "type": "address"
        },
        {
          "indexed": true,
          "internalType": "uint256",
          "name": "tokenId",
          "type": "uint256"
        }
      ],
      "name": "Transfer",
      "type": "event"
    },
    {
      "anonymous": false,
      "inputs": [
        {
          "indexed": false,
          "internalType": "address",
          "name": "account",
          "type": "address"
        }
      ],
      "name": "Unpaused",
      "type": "event"
    },
    {
      "inputs": [],
      "name": "ADMIN_ROLE",
      "outputs": [
        {
          "internalType": "bytes32",
          "name": "",
          "type": "bytes32"
        }
      ],
      "stateMutability": "view",
      "type": "function"
    },
    {
      "inputs": [],
      "name": "DEFAULT_ADMIN_ROLE",
      "outputs": [
        {
          "internalType": "bytes32",
          "name": "",
          "type": "bytes32"
        }
      ],
      "stateMutability": "view",
      "type": "function"
    },
    {
      "inputs": [],
      "name": "MINTER_ROLE",
      "outputs": [
        {
          "internalType": "bytes32",
          "name": "",
          "type": "bytes32"
        }
      ],
      "stateMutability": "view",
      "type": "function"
    },
    {
      "inputs": [
        {
          "internalType": "enum SoulboundToken.AchievementType",
          "name": "",
          "type": "uint8"
        }
      ],
      "name": "achievementCounts",
      "outputs": [
        {
          "internalType": "uint256",
          "name": "",
          "type": "uint256"
        }
      ],
      "stateMutability": "view",
      "type": "function"
    },
    {
      "inputs": [
        {
          "internalType": "uint256",
          "name": "",
          "type": "uint256"
        }
      ],
      "name": "achievements",
      "outputs": [
        {
          "internalType": "enum SoulboundToken.AchievementType",
          "name": "achievementType",
          "type": "uint8"
        },
        {
          "internalType": "string",
          "name": "title",
          "type": "string"
        },
        {
          "internalType": "string",
          "name": "description",
          "type": "string"
        },
        {
          "internalType": "string",
          "name": "metadata",
          "type": "string"
        },
        {
          "internalType": "uint256",
          "name": "timestamp",
          "type": "uint256"
        },
        {
          "internalType": "address",
          "name": "issuer",
          "type": "address"
        },
        {
          "internalType": "bool",
          "name": "verified",
          "type": "bool"
        }
      ],
      "stateMutability": "view",
      "type": "function"
    },
    {
      "inputs": [
        {
          "internalType": "address",
          "name": "",
          "type": "address"
        },
        {
          "internalType": "uint256",
          "name": "",
          "type": "uint256"
        }
      ],
      "name": "approve",
      "outputs": [],
      "stateMutability": "pure",
      "type": "function"
    },
    {
      "inputs": [
        {
          "internalType": "address",
          "name": "owner",
          "type": "address"
        }
      ],
      "name": "balanceOf",
      "outputs": [
        {
          "internalType": "uint256",
          "name": "",
          "type": "uint256"
        }
      ],
      "stateMutability": "view",
      "type": "function"
    },
    {
      "inputs": [
        {
          "internalType": "address[]",
          "name": "developers",
          "type": "address[]"
        },
        {
          "internalType": "bool",
          "name": "verified",
          "type": "bool"
        }
      ],
      "name": "batchSetDeveloperVerification",
      "outputs": [],
      "stateMutability": "nonpayable",
      "type": "function"
    },
    {
      "inputs": [
        {
          "internalType": "uint256",
          "name": "tokenId",
          "type": "uint256"
        }
      ],
      "name": "getAchievement",
      "outputs": [
        {
          "components": [
            {
              "internalType": "enum SoulboundToken.AchievementType",
              "name": "achievementType",
              "type": "uint8"
            },
            {
              "internalType": "string",
              "name": "title",
              "type": "string"
            },
            {
              "internalType": "string",
              "name": "description",
              "type": "string"
            },
            {
              "internalType": "string",
              "name": "metadata",
              "type": "string"
            },
            {
              "internalType": "uint256",
              "name": "timestamp",
              "type": "uint256"
            },
            {
              "internalType": "address",
              "name": "issuer",
              "type": "address"
            },
            {
              "internalType": "bool",
              "name": "verified",
              "type": "bool"
            }
          ],
          "internalType": "struct SoulboundToken.Achievement",
          "name": "",
          "type": "tuple"
        }
      ],
      "stateMutability": "view",
      "type": "function"
    },
    {
      "inputs": [
        {
          "internalType": "uint256",
          "name": "tokenId",
          "type": "uint256"
        }
      ],
      "name": "getApproved",
      "outputs": [
        {
          "internalType": "address",
          "name": "",
          "type": "address"
        }
      ],
      "stateMutability": "view",
      "type": "function"
    },
    {
      "inputs": [
        {
          "internalType": "enum SoulboundToken.AchievementType",
          "name": "achievementType",
          "type": "uint8"
        }
      ],
      "name": "getGlobalAchievementCount",
      "outputs": [
        {
          "internalType": "uint256",
          "name": "",
          "type": "uint256"
        }
      ],
      "stateMutability": "view",
      "type": "function"
    },
    {
      "inputs": [
        {
          "internalType": "address",
          "name": "user",
          "type": "address"
        }
      ],
      "name": "getReputationScore",
      "outputs": [
        {
          "internalType": "uint256",
          "name": "",
          "type": "uint256"
        }
      ],
      "stateMutability": "view",
      "type": "function"
    },
    {
      "inputs": [
        {
          "internalType": "bytes32",
          "name": "role",
          "type": "bytes32"
        }
      ],
      "name": "getRoleAdmin",
      "outputs": [
        {
          "internalType": "bytes32",
          "name": "",
          "type": "bytes32"
        }
      ],
      "stateMutability": "view",
      "type": "function"
    },
    {
      "inputs": [
        {
          "internalType": "address",
          "name": "user",
          "type": "address"
        },
        {
          "internalType": "enum SoulboundToken.AchievementType",
          "name": "achievementType",
          "type": "uint8"
        }
      ],
      "name": "getUserAchievementCount",
      "outputs": [
        {
          "internalType": "uint256",
          "name": "",
          "type": "uint256"
        }
      ],
      "stateMutability": "view",
      "type": "function"
    },
    {
      "inputs": [
        {
          "internalType": "address",
          "name": "user",
          "type": "address"
        }
      ],
      "name": "getUserAchievements",
      "outputs": [
        {
          "internalType": "uint256[]",
          "name": "",
          "type": "uint256[]"
        }
      ],
      "stateMutability": "view",
      "type": "function"
    },
    {
      "inputs": [
        {
          "internalType": "bytes32",
          "name": "role",
          "type": "bytes32"
        },
        {
          "internalType": "address",
          "name": "account",
          "type": "address"
        }
      ],
      "name": "grantRole",
      "outputs": [],
      "stateMutability": "nonpayable",
      "type": "function"
    },
    {
      "inputs": [
        {
          "internalType": "bytes32",
          "name": "role",
          "type": "bytes32"
        },
        {
          "internalType": "address",
          "name": "account",
          "type": "address"
        }
      ],
      "name": "hasRole",
      "outputs": [
        {
          "internalType": "bool",
          "name": "",
          "type": "bool"
        }
      ],
      "stateMutability": "view",
      "type": "function"
    },
    {
      "inputs": [
        {
          "internalType": "address",
          "name": "owner",
          "type": "address"
        },
        {
          "internalType": "address",
          "name": "operator",
          "type": "address"
        }
      ],
      "name": "isApprovedForAll",
      "outputs": [
        {
          "internalType": "bool",
          "name": "",
          "type": "bool"
        }
      ],
      "stateMutability": "view",
      "type": "function"
    },
    {
      "inputs": [
        {
          "internalType": "address",
          "name": "to",
          "type": "address"
        },
        {
          "internalType": "enum SoulboundToken.AchievementType",
          "name": "achievementType",
          "type": "uint8"
        },
        {
          "internalType": "string",
          "name": "title",
          "type": "string"
        },
        {
          "internalType": "string",
          "name": "description",
          "type": "string"
        },
        {
          "internalType": "string",
          "name": "metadata",
          "type": "string"
        }
      ],
      "name": "mintAchievement",
      "outputs": [
        {
          "internalType": "uint256",
          "name": "",
          "type": "uint256"
        }
      ],
      "stateMutability": "nonpayable",
      "type": "function"
    },
    {
      "inputs": [],
      "name": "name",
      "outputs": [
        {
          "internalType": "string",
          "name": "",
          "type": "string"
        }
      ],
      "stateMutability": "view",
      "type": "function"
    },
    {
      "inputs": [
        {
          "internalType": "uint256",
          "name": "tokenId",
          "type": "uint256"
        }
      ],
      "name": "ownerOf",
      "outputs": [
        {
          "internalType": "address",
          "name": "",
          "type": "address"
        }
      ],
      "stateMutability": "view",
      "type": "function"
    },
    {
      "inputs": [],
      "name": "pause",
      "outputs": [],
      "stateMutability": "nonpayable",
      "type": "function"
    },
    {
      "inputs": [],
      "name": "paused",
      "outputs": [
        {
          "internalType": "bool",
          "name": "",
          "type": "bool"
        }
      ],
      "stateMutability": "view",
      "type": "function"
    },
    {
      "inputs": [
        {
          "internalType": "bytes32",
          "name": "role",
          "type": "bytes32"
        },
        {
          "internalType": "address",
          "name": "account",
          "type": "address"
        }
      ],
      "name": "renounceRole",
      "outputs": [],
      "stateMutability": "nonpayable",
      "type": "function"
    },
    {
      "inputs": [
        {
          "internalType": "bytes32",
          "name": "role",
          "type": "bytes32"
        },
        {
          "internalType": "address",
          "name": "account",
          "type": "address"
        }
      ],
      "name": "revokeRole",
      "outputs": [],
      "stateMutability": "nonpayable",
      "type": "function"
    },
    {
      "inputs": [
        {
          "internalType": "address",
          "name": "",
          "type": "address"
        },
        {
          "internalType": "address",
          "name": "",
          "type": "address"
        },
        {
          "internalType": "uint256",
          "name": "",
          "type": "uint256"
        }
      ],
      "name": "safeTransferFrom",
      "outputs": [],
      "stateMutability": "pure",
      "type": "function"
    },
    {
      "inputs": [
        {
          "internalType": "address",
          "name": "",
          "type": "address"
        },
        {
          "internalType": "address",
          "name": "",
          "type": "address"
        },
        {
          "internalType": "uint256",
          "name": "",
          "type": "uint256"
        },
        {
          "internalType": "bytes",
          "name": "",
          "type": "bytes"
        }
      ],
      "name": "safeTransferFrom",
      "outputs": [],
      "stateMutability": "pure",
      "type": "function"
    },
    {
      "inputs": [
        {
          "internalType": "address",
          "name": "",
          "type": "address"
        },
        {
          "internalType": "bool",
          "name": "",
          "type": "bool"
        }
      ],
      "name": "setApprovalForAll",
      "outputs": [],
      "stateMutability": "pure",
      "type": "function"
    },
    {
      "inputs": [
        {
          "internalType": "address",
          "name": "developer",
          "type": "address"
        },
        {
          "internalType": "bool",
          "name": "verified",
          "type": "bool"
        }
      ],
      "name": "setDeveloperVerification",
      "outputs": [],
      "stateMutability": "nonpayable",
      "type": "function"
    },
    {
      "inputs": [
        {
          "internalType": "bytes4",
          "name": "interfaceId",
          "type": "bytes4"
        }
      ],
      "name": "supportsInterface",
      "outputs": [
        {
          "internalType": "bool",
          "name": "",
          "type": "bool"
        }
      ],
      "stateMutability": "view",
      "type": "function"
    },
    {
      "inputs": [],
      "name": "symbol",
      "outputs": [
        {
          "internalType": "string",
          "name": "",
          "type": "string"
        }
      ],
      "stateMutability": "view",
      "type": "function"
    },
    {
      "inputs": [
        {
          "internalType": "uint256",
          "name": "tokenId",
          "type": "uint256"
        }
      ],
      "name": "tokenURI",
      "outputs": [
        {
          "internalType": "string",
          "name": "",
          "type": "string"
        }
      ],
      "stateMutability": "view",
      "type": "function"
    },
    {
      "inputs": [],
      "name": "totalAchievements",
      "outputs": [
        {
          "internalType": "uint256",
          "name": "",
          "type": "uint256"
        }
      ],
      "stateMutability": "view",
      "type": "function"
    },
    {
      "inputs": [
        {
          "internalType": "address",
          "name": "",
          "type": "address"
        },
        {
          "internalType": "address",
          "name": "",
          "type": "address"
        },
        {
          "internalType": "uint256",
          "name": "",
          "type": "uint256"
        }
      ],
      "name": "transferFrom",
      "outputs": [],
      "stateMutability": "pure",
      "type": "function"
    },
    {
      "inputs": [],
      "name": "unpause",
      "outputs": [],
      "stateMutability": "nonpayable",
      "type": "function"
    },
    {
      "inputs": [
        {
          "internalType": "address",
          "name": "",
          "type": "address"
        },
        {
          "internalType": "uint256",
          "name": "",
          "type": "uint256"
        }
      ],
      "name": "userAchievements",
      "outputs": [
        {
          "internalType": "uint256",
          "name": "",
          "type": "uint256"
        }
      ],
      "stateMutability": "view",
      "type": "function"
    },
    {
      "inputs": [
        {
          "internalType": "address",
          "name": "developer",
          "type": "address"
        }
      ],
      "name": "verifiedDeveloper",
      "outputs": [
        {
          "internalType": "bool",
          "name": "",
          "type": "bool"
        }
      ],
      "stateMutability": "view",
      "type": "function"
    },
    {
      "inputs": [
        {
          "internalType": "address",
          "name": "",
          "type": "address"
        }
      ],
      "name": "verifiedDevelopers",
      "outputs": [
        {
          "internalType": "bool",
          "name": "",
          "type": "bool"
        }
      ],
      "stateMutability": "view",
      "type": "function"
    }
  ],
  "bytecode": "0x60806040523480156200001157600080fd5b506040518060400160405280601481526020017f584d4554582052657075746174696f6e20534254000000000000000000000000815250604051806040016040528060048152602001630585245560e41b815250816000908162000076919062000247565b50600162000085828262000247565b50506007805460ff19169055506200009f600033620000fd565b620000cb7fa49807205ce4d355092ef5a8a18f56e8913cf4a201fbe287825b095693c2177533620000fd565b620000f77f9f2df0fed2c77648de5860a4cc508cd0818c85b8b8a1ab4ceeef8d981c8956a633620000fd565b62000313565b60008281526006602090815260408083206001600160a01b038516845290915290205460ff166200019e5760008281526006602090815260408083206001600160a01b03851684529091529020805460ff191660011790556200015d3390565b6001600160a01b0316816001600160a01b0316837f2f8788117e7eff1d82e926ec794901d17c78024a50270940304540a733656f0d60405160405180910390a45b5050565b634e487b7160e01b600052604160045260246000fd5b600181811c90821680620001cd57607f821691505b602082108103620001ee57634e487b7160e01b600052602260045260246000fd5b50919050565b601f8211156200024257600081815260208120601f850160051c810160208610156200021d5750805b601f850160051c820191505b818110156200023e5782815560010162000229565b5050505b505050565b81516001600160401b03811115620002635762000263620001a2565b6200027b81620002748454620001b8565b84620001f4565b602080601f831160018114620002b357600084156200029a5750858301515b600019600386901b1c1916600185901b1785556200023e565b600085815260208120601f198616915b82811015620002e457888601518255948401946001909101908401620002c3565b5085821015620003035787850151600019600388901b60f8161c191681555b5050505050600190811b01905550565b61312880620003236000396000f3fe608060405234801561001057600080fd5b50600436106102325760003560e01c806375a67d5c11610130578063b88d4fde116100b8578063e985e9c51161007c578063e985e9c5146104ec578063ed79bae414610528578063f09153c41461054b578063f2ccc5431461056b578063faf380781461058b57600080fd5b8063b88d4fde1461047e578063c5c472721461048c578063c87b56dd1461049f578063d5391393146104b2578063d547741f146104d957600080fd5b806395d89b41116100ff57806395d89b4114610445578063a217fddf1461044d578063a22cb46514610455578063a61f983714610463578063ad7ec52a1461046b57600080fd5b806375a67d5c1461040257806375b238fc146104155780638456cb591461042a57806391d148541461043257600080fd5b80632f2ff15d116101be5780635c975abb116101825780635c975abb146103925780636352211e1461039d57806368d8c3cc146103b057806370a08231146103c3578063729cde77146103d657600080fd5b80632f2ff15d1461035157806336568abe146103645780633e572753146103775780633f4ba83a1461038a57806342842e0e146102e257600080fd5b806310f516191161020557806310f51619146102b457806323b872dd146102e257806324548c60146102f5578063248a9ca31461030857806327aed72e1461032b57600080fd5b806301ffc9a71461023757806306fdde031461025f578063081812fc14610274578063095ea7b31461029f575b600080fd5b61024a6102453660046125a4565b61059e565b60405190151581526020015b60405180910390f35b6102676105af565b6040516102569190612611565b610287610282366004612624565b610641565b6040516001600160a01b039091168152602001610256565b6102b26102ad366004612659565b610668565b005b6102d46102c2366004612692565b600c6020526000908152604090205481565b604051908152602001610256565b6102b26102f03660046126ad565b6106ce565b6102d4610303366004612659565b6106e6565b6102d4610316366004612624565b60009081526006602052604090206001015490565b61033e610339366004612624565b610717565b6040516102569796959493929190612721565b6102b261035f366004612792565b6108fd565b6102b2610372366004612792565b610927565b6102b2610385366004612815565b6109a5565b6102b2610b0c565b60075460ff1661024a565b6102876103ab366004612624565b610b2f565b6102d46103be3660046128d4565b610b8f565b6102d46103d13660046128fe565b610c8a565b61024a6103e43660046128fe565b6001600160a01b03166000908152600b602052604090205460ff1690565b6102d46104103660046128fe565b610d10565b6102d46000805160206130d383398151915281565b6102b2610f02565b61024a610440366004612792565b610f22565b610267610f4d565b6102d4600081565b6102b26102ad366004612919565b6102d4610f5c565b6102d4610479366004612692565b610f6c565b6102b26102f036600461299b565b6102b261049a366004612919565b610fab565b6102676104ad366004612624565b611075565b6102d47f9f2df0fed2c77648de5860a4cc508cd0818c85b8b8a1ab4ceeef8d981c8956a681565b6102b26104e7366004612792565b6113b4565b61024a6104fa366004612a17565b6001600160a01b03918216600090815260056020908152604080832093909416825291909152205460ff1690565b61024a6105363660046128fe565b600b6020526000908152604090205460ff1681565b61055e6105593660046128fe565b6113d9565b6040516102569190612a41565b61057e610579366004612624565b611445565b6040516102569190612a85565b6102d4610599366004612b44565b611727565b60006105a982611a62565b92915050565b6060600080546105be90612bee565b80601f01602080910402602001604051908101604052809291908181526020018280546105ea90612bee565b80156106375780601f1061060c57610100808354040283529160200191610637565b820191906000526020600020905b81548152906001019060200180831161061a57829003601f168201915b5050505050905090565b600061064c82611a87565b506000908152600460205260409020546001600160a01b031690565b60405162461bcd60e51b815260206004820152603060248201527f536f756c626f756e6420746f6b656e732063616e6e6f7420626520617070726f60448201526f3b32b2103337b9103a3930b739b332b960811b60648201526084015b60405180910390fd5b60405162461bcd60e51b81526004016106c590612c28565b600a602052816000526040600020818154811061070257600080fd5b90600052602060002001600091509150505481565b6009602052600090815260409020805460018201805460ff909216929161073d90612bee565b80601f016020809104026020016040519081016040528092919081815260200182805461076990612bee565b80156107b65780601f1061078b576101008083540402835291602001916107b6565b820191906000526020600020905b81548152906001019060200180831161079957829003601f168201915b5050505050908060020180546107cb90612bee565b80601f01602080910402602001604051908101604052809291908181526020018280546107f790612bee565b80156108445780601f1061081957610100808354040283529160200191610844565b820191906000526020600020905b81548152906001019060200180831161082757829003601f168201915b50505050509080600301805461085990612bee565b80601f016020809104026020016040519081016040528092919081815260200182805461088590612bee565b80156108d25780601f106108a7576101008083540402835291602001916108d2565b820191906000526020600020905b8154815290600101906020018083116108b557829003601f168201915b5050505060048301546005909301549192916001600160a01b0381169150600160a01b900460ff1687565b60008281526006602052604090206001015461091881611ae6565b6109228383611af0565b505050565b6001600160a01b03811633146109975760405162461bcd60e51b815260206004820152602f60248201527f416363657373436f6e74726f6c3a2063616e206f6e6c792072656e6f756e636560448201526e103937b632b9903337b91039b2b63360891b60648201526084016106c5565b6109a18282611b76565b5050565b6000805160206130d38339815191526109bd81611ae6565b60005b8351811015610b065760006001600160a01b03168482815181106109e6576109e6612c6e565b60200260200101516001600160a01b031603610a405760405162461bcd60e51b8152602060048201526019602482015278496e76616c696420646576656c6f706572206164647265737360381b60448201526064016106c5565b82600b6000868481518110610a5757610a57612c6e565b60200260200101516001600160a01b03166001600160a01b0316815260200190815260200160002060006101000a81548160ff021916908315150217905550838181518110610aa857610aa8612c6e565b60200260200101516001600160a01b03167fbe58c2037618fee881131be26473e2181da84864882ba3837538a236fef6d7f484604051610aec911515815260200190565b60405180910390a280610afe81612c9a565b9150506109c0565b50505050565b6000805160206130d3833981519152610b2481611ae6565b610b2c611bdd565b50565b6000818152600260205260408120546001600160a01b0316806105a95760405162461bcd60e51b8152602060048201526018602482015277115490cdcc8c4e881a5b9d985b1a59081d1bdad95b88125160421b60448201526064016106c5565b6001600160a01b0382166000908152600a60209081526040808320805482518185028101850190935280835284938493929190830182828015610bf157602002820191906000526020600020905b815481526020019060010190808311610bdd575b5050505050905060005b8151811015610c8057846006811115610c1657610c166126e9565b60096000848481518110610c2c57610c2c612c6e565b60209081029190910181015182528101919091526040016000205460ff166006811115610c5b57610c5b6126e9565b03610c6e5782610c6a81612c9a565b9350505b80610c7881612c9a565b915050610bfb565b5090949350505050565b60006001600160a01b038216610cf45760405162461bcd60e51b815260206004820152602960248201527f4552433732313a2061646472657373207a65726f206973206e6f7420612076616044820152683634b21037bbb732b960b91b60648201526084016106c5565b506001600160a01b031660009081526003602052604090205490565b6001600160a01b0381166000908152600b602052604081205460ff16610d3857506000919050565b6001600160a01b0382166000908152600a6020908152604080832080548251818502810185019093528083528493830182828015610d9557602002820191906000526020600020905b815481526020019060010190808311610d81575b5050505050905060005b8151811015610ef957600060096000848481518110610dc057610dc0612c6e565b602090810291909101810151825281019190915260400160009081205460ff169150816006811115610df457610df46126e9565b03610e0b57610e04606485612cb3565b9350610ee6565b6001816006811115610e1f57610e1f6126e9565b03610e2f57610e04609685612cb3565b6002816006811115610e4357610e436126e9565b03610e5357610e0460c885612cb3565b6003816006811115610e6757610e676126e9565b03610e7757610e04604b85612cb3565b6004816006811115610e8b57610e8b6126e9565b03610e9b57610e04605085612cb3565b6005816006811115610eaf57610eaf6126e9565b03610ebf57610e04607885612cb3565b6006816006811115610ed357610ed36126e9565b03610ee657610ee3605a85612cb3565b93505b5080610ef181612c9a565b915050610d9f565b50909392505050565b6000805160206130d3833981519152610f1a81611ae6565b610b2c611c2f565b60009182526006602090815260408084206001600160a01b0393909316845291905290205460ff1690565b6060600180546105be90612bee565b6000610f6760085490565b905090565b6000600c6000836006811115610f8457610f846126e9565b6006811115610f9557610f956126e9565b8152602001908152602001600020549050919050565b6000805160206130d3833981519152610fc381611ae6565b6001600160a01b0383166110155760405162461bcd60e51b8152602060048201526019602482015278496e76616c696420646576656c6f706572206164647265737360381b60448201526064016106c5565b6001600160a01b0383166000818152600b6020908152604091829020805460ff191686151590811790915591519182527fbe58c2037618fee881131be26473e2181da84864882ba3837538a236fef6d7f4910160405180910390a2505050565b6000818152600260205260409020546060906001600160a01b03166110dc5760405162461bcd60e51b815260206004820152601f60248201527f55524920717565727920666f72206e6f6e6578697374656e7420746f6b656e0060448201526064016106c5565b600082815260096020526040808220815160e081019092528054829060ff16600681111561110c5761110c6126e9565b600681111561111d5761111d6126e9565b815260200160018201805461113190612bee565b80601f016020809104026020016040519081016040528092919081815260200182805461115d90612bee565b80156111aa5780601f1061117f576101008083540402835291602001916111aa565b820191906000526020600020905b81548152906001019060200180831161118d57829003601f168201915b505050505081526020016002820180546111c390612bee565b80601f01602080910402602001604051908101604052809291908181526020018280546111ef90612bee565b801561123c5780601f106112115761010080835404028352916020019161123c565b820191906000526020600020905b81548152906001019060200180831161121f57829003601f168201915b5050505050815260200160038201805461125590612bee565b80601f016020809104026020016040519081016040528092919081815260200182805461128190612bee565b80156112ce5780601f106112a3576101008083540402835291602001916112ce565b820191906000526020600020905b8154815290600101906020018083116112b157829003601f168201915b5050509183525050600482015460208201526005909101546001600160a01b0381166040830152600160a01b900460ff161515606091820152810151519091501561131d576060015192915050565b60208101516040820151825161133290611c6c565b61133f8460800151611e83565b8460c0015161136b576040518060400160405280600581526020016466616c736560d81b815250611389565b604051806040016040528060048152602001637472756560e01b8152505b60405160200161139d959493929190612ce2565b604051602081830303815290604052915050919050565b6000828152600660205260409020600101546113cf81611ae6565b6109228383611b76565b6001600160a01b0381166000908152600a602090815260409182902080548351818402810184019094528084526060939283018282801561143957602002820191906000526020600020905b815481526020019060010190808311611425575b50505050509050919050565b6114916040805160e0810190915280600081526020016060815260200160608152602001606081526020016000815260200160006001600160a01b031681526020016000151581525090565b6000828152600260205260409020546001600160a01b03166114f55760405162461bcd60e51b815260206004820152601a60248201527f416368696576656d656e7420646f6573206e6f7420657869737400000000000060448201526064016106c5565b60008281526009602052604090819020815160e081019092528054829060ff166006811115611526576115266126e9565b6006811115611537576115376126e9565b815260200160018201805461154b90612bee565b80601f016020809104026020016040519081016040528092919081815260200182805461157790612bee565b80156115c45780601f10611599576101008083540402835291602001916115c4565b820191906000526020600020905b8154815290600101906020018083116115a757829003601f168201915b505050505081526020016002820180546115dd90612bee565b80601f016020809104026020016040519081016040528092919081815260200182805461160990612bee565b80156116565780601f1061162b57610100808354040283529160200191611656565b820191906000526020600020905b81548152906001019060200180831161163957829003601f168201915b5050505050815260200160038201805461166f90612bee565b80601f016020809104026020016040519081016040528092919081815260200182805461169b90612bee565b80156116e85780601f106116bd576101008083540402835291602001916116e8565b820191906000526020600020905b8154815290600101906020018083116116cb57829003601f168201915b5050509183525050600482015460208201526005909101546001600160a01b0381166040830152600160a01b900460ff16151560609091015292915050565b60007f9f2df0fed2c77648de5860a4cc508cd0818c85b8b8a1ab4ceeef8d981c8956a661175381611ae6565b61175b611f8c565b6001600160a01b0387166000908152600b602052604090205460ff166117d25760405162461bcd60e51b815260206004820152602660248201527f526563697069656e74206d75737420626520612076657269666965642064657660448201526532b637b832b960d11b60648201526084016106c5565b600085511161181b5760405162461bcd60e51b81526020600482015260156024820152745469746c652063616e6e6f7420626520656d70747960581b60448201526064016106c5565b600084511161186c5760405162461bcd60e51b815260206004820152601b60248201527f4465736372697074696f6e2063616e6e6f7420626520656d707479000000000060448201526064016106c5565b600061187760085490565b9050611887600880546001019055565b6040518060e001604052808860068111156118a4576118a46126e9565b815260208082018990526040808301899052606083018890524260808401523360a0840152600160c09093018390526000858152600990925290208251815491929091839160ff1990911690836006811115611902576119026126e9565b02179055506020820151600182019061191b9082612e44565b50604082015160028201906119309082612e44565b50606082015160038201906119459082612e44565b506080820151600482015560a08201516005909101805460c0909301511515600160a01b026001600160a81b03199093166001600160a01b03928316179290921790915588166000908152600a602090815260408220805460018101825590835290822001829055600c908860068111156119c2576119c26126e9565b60068111156119d3576119d36126e9565b815260200190815260200160002060008154809291906119f290612c9a565b9190505550611a018882611fd4565b866006811115611a1357611a136126e9565b81896001600160a01b03167f3d8ad5bbae747717d2e97368b63da90219427dd9478c81d41cbd02083457212e8989604051611a4f929190612f04565b60405180910390a4979650505050505050565b60006001600160e01b03198216637965db0b60e01b14806105a957506105a982611fee565b6000818152600260205260409020546001600160a01b0316610b2c5760405162461bcd60e51b8152602060048201526018602482015277115490cdcc8c4e881a5b9d985b1a59081d1bdad95b88125160421b60448201526064016106c5565b610b2c813361203e565b611afa8282610f22565b6109a15760008281526006602090815260408083206001600160a01b03851684529091529020805460ff19166001179055611b323390565b6001600160a01b0316816001600160a01b0316837f2f8788117e7eff1d82e926ec794901d17c78024a50270940304540a733656f0d60405160405180910390a45050565b611b808282610f22565b156109a15760008281526006602090815260408083206001600160a01b0385168085529252808320805460ff1916905551339285917ff6391f5c32d9c69d2a47ea670b442974b53935d1edc7fd64eb21e047a839171b9190a45050565b611be5612097565b6007805460ff191690557f5db9ee0a495bf2e6ff9c91a7834c1ba4fdd244a5e8aa4e537bd38aeae4b073aa335b6040516001600160a01b03909116815260200160405180910390a1565b611c37611f8c565b6007805460ff191660011790557f62e78cea01bee320cd4e420270b5ea74000d11b0c9f74754ebdbfc544b05a258611c123390565b60606000826006811115611c8257611c826126e9565b03611cb5575050604080518082019091526012815271283937b532b1ba1021b7b6b83632ba34b7b760711b602082015290565b6001826006811115611cc957611cc96126e9565b03611cf757505060408051808201909152600d81526c352d537461722052657669657760981b602082015290565b6002826006811115611d0b57611d0b6126e9565b03611d3f575050604080518082019091526013815272111053c8141c9bdc1bdcd85b0814185cdcd959606a1b602082015290565b6003826006811115611d5357611d536126e9565b03611d8657505060408051808201909152601281527129b5b4b636102b32b934b334b1b0ba34b7b760711b602082015290565b6004826006811115611d9a57611d9a6126e9565b03611dce575050604080518082019091526013815272436f6c6c61626f726174696f6e20426164676560681b602082015290565b6005826006811115611de257611de26126e9565b03611e1557505060408051808201909152601281527113595b9d1bdc881058da1a595d995b595b9d60721b602082015290565b6006826006811115611e2957611e296126e9565b03611e6057505060408051808201909152601681527521b7b6b6bab734ba3c9021b7b73a3934b13aba34b7b760511b602082015290565b50506040805180820190915260078152662ab735b737bbb760c91b602082015290565b606081600003611eaa5750506040805180820190915260018152600360fc1b602082015290565b8160005b8115611ed45780611ebe81612c9a565b9150611ecd9050600a83612f48565b9150611eae565b60008167ffffffffffffffff811115611eef57611eef6127be565b6040519080825280601f01601f191660200182016040528015611f19576020820181803683370190505b5090505b8415611f8457611f2e600183612f5c565b9150611f3b600a86612f6f565b611f46906030612cb3565b60f81b818381518110611f5b57611f5b612c6e565b60200101906001600160f81b031916908160001a905350611f7d600a86612f48565b9450611f1d565b949350505050565b60075460ff1615611fd25760405162461bcd60e51b815260206004820152601060248201526f14185d5cd8589b194e881c185d5cd95960821b60448201526064016106c5565b565b6109a18282604051806020016040528060008152506120e0565b60006001600160e01b031982166380ac58cd60e01b148061201f57506001600160e01b03198216635b5e139f60e01b145b806105a957506301ffc9a760e01b6001600160e01b03198316146105a9565b6120488282610f22565b6109a15761205581612113565b612060836020612125565b604051602001612071929190612f83565b60408051601f198184030181529082905262461bcd60e51b82526106c591600401612611565b60075460ff16611fd25760405162461bcd60e51b815260206004820152601460248201527314185d5cd8589b194e881b9bdd081c185d5cd95960621b60448201526064016106c5565b6120ea83836122c8565b6120f76000848484612461565b6109225760405162461bcd60e51b81526004016106c590612ff8565b60606105a96001600160a01b03831660145b6060600061213483600261304a565b61213f906002612cb3565b67ffffffffffffffff811115612157576121576127be565b6040519080825280601f01601f191660200182016040528015612181576020820181803683370190505b509050600360fc1b8160008151811061219c5761219c612c6e565b60200101906001600160f81b031916908160001a905350600f60fb1b816001815181106121cb576121cb612c6e565b60200101906001600160f81b031916908160001a90535060006121ef84600261304a565b6121fa906001612cb3565b90505b6001811115612272576f181899199a1a9b1b9c1cb0b131b232b360811b85600f166010811061222e5761222e612c6e565b1a60f81b82828151811061224457612244612c6e565b60200101906001600160f81b031916908160001a90535060049490941c9361226b81613061565b90506121fd565b5083156122c15760405162461bcd60e51b815260206004820181905260248201527f537472696e67733a20686578206c656e67746820696e73756666696369656e7460448201526064016106c5565b9392505050565b6001600160a01b03821661231e5760405162461bcd60e51b815260206004820181905260248201527f4552433732313a206d696e7420746f20746865207a65726f206164647265737360448201526064016106c5565b6000818152600260205260409020546001600160a01b0316156123835760405162461bcd60e51b815260206004820152601c60248201527f4552433732313a20746f6b656e20616c7265616479206d696e7465640000000060448201526064016106c5565b612391600083836001612562565b6000818152600260205260409020546001600160a01b0316156123f65760405162461bcd60e51b815260206004820152601c60248201527f4552433732313a20746f6b656e20616c7265616479206d696e7465640000000060448201526064016106c5565b6001600160a01b038216600081815260036020908152604080832080546001019055848352600290915280822080546001600160a01b0319168417905551839291907fddf252ad1be2c89b69c2b068fc378daa952ba7f163c4a11628f55a4df523b3ef908290a45050565b60006001600160a01b0384163b1561255757604051630a85bd0160e11b81526001600160a01b0385169063150b7a02906124a5903390899088908890600401613078565b6020604051808303816000875af19250505080156124e0575060408051601f3d908101601f191682019092526124dd918101906130b5565b60015b61253d573d80801561250e576040519150601f19603f3d011682016040523d82523d6000602084013e612513565b606091505b5080516000036125355760405162461bcd60e51b81526004016106c590612ff8565b805181602001fd5b6001600160e01b031916630a85bd0160e11b149050611f84565b506001949350505050565b6001600160a01b038416156125895760405162461bcd60e51b81526004016106c590612c28565b610b06565b6001600160e01b031981168114610b2c57600080fd5b6000602082840312156125b657600080fd5b81356122c18161258e565b60005b838110156125dc5781810151838201526020016125c4565b50506000910152565b600081518084526125fd8160208601602086016125c1565b601f01601f19169290920160200192915050565b6020815260006122c160208301846125e5565b60006020828403121561263657600080fd5b5035919050565b80356001600160a01b038116811461265457600080fd5b919050565b6000806040838503121561266c57600080fd5b6126758361263d565b946020939093013593505050565b80356007811061265457600080fd5b6000602082840312156126a457600080fd5b6122c182612683565b6000806000606084860312156126c257600080fd5b6126cb8461263d565b92506126d96020850161263d565b9150604084013590509250925092565b634e487b7160e01b600052602160045260246000fd5b6007811061271d57634e487b7160e01b600052602160045260246000fd5b9052565b61272b81896126ff565b60e06020820152600061274160e08301896125e5565b828103604084015261275381896125e5565b9050828103606084015261276781886125e5565b608084019690965250506001600160a01b039290921660a0830152151560c090910152949350505050565b600080604083850312156127a557600080fd5b823591506127b56020840161263d565b90509250929050565b634e487b7160e01b600052604160045260246000fd5b604051601f8201601f1916810167ffffffffffffffff811182821017156127fd576127fd6127be565b604052919050565b8035801515811461265457600080fd5b6000806040838503121561282857600080fd5b823567ffffffffffffffff8082111561284057600080fd5b818501915085601f83011261285457600080fd5b8135602082821115612868576128686127be565b8160051b92506128798184016127d4565b828152928401810192818101908985111561289357600080fd5b948201945b848610156128b8576128a98661263d565b82529482019490820190612898565b96506128c79050878201612805565b9450505050509250929050565b600080604083850312156128e757600080fd5b6128f08361263d565b91506127b560208401612683565b60006020828403121561291057600080fd5b6122c18261263d565b6000806040838503121561292c57600080fd5b6129358361263d565b91506127b560208401612805565b600067ffffffffffffffff83111561295d5761295d6127be565b612970601f8401601f19166020016127d4565b905082815283838301111561298457600080fd5b828260208301376000602084830101529392505050565b600080600080608085870312156129b157600080fd5b6129ba8561263d565b93506129c86020860161263d565b925060408501359150606085013567ffffffffffffffff8111156129eb57600080fd5b8501601f810187136129fc57600080fd5b612a0b87823560208401612943565b91505092959194509250565b60008060408385031215612a2a57600080fd5b612a338361263d565b91506127b56020840161263d565b6020808252825182820181905260009190848201906040850190845b81811015612a7957835183529284019291840191600101612a5d565b50909695505050505050565b60208152612a976020820183516126ff565b6000602083015160e06040840152612ab36101008401826125e5565b90506040840151601f1980858403016060860152612ad183836125e5565b9250606086015191508085840301608086015250612aef82826125e5565b915050608084015160a084015260018060a01b0360a08501511660c084015260c0840151151560e08401528091505092915050565b600082601f830112612b3557600080fd5b6122c183833560208501612943565b600080600080600060a08688031215612b5c57600080fd5b612b658661263d565b9450612b7360208701612683565b9350604086013567ffffffffffffffff80821115612b9057600080fd5b612b9c89838a01612b24565b94506060880135915080821115612bb257600080fd5b612bbe89838a01612b24565b93506080880135915080821115612bd457600080fd5b50612be188828901612b24565b9150509295509295909350565b600181811c90821680612c0257607f821691505b602082108103612c2257634e487b7160e01b600052602260045260246000fd5b50919050565b60208082526026908201527f536f756c626f756e6420746f6b656e732063616e6e6f74206265207472616e7360408201526519995c9c995960d21b606082015260800190565b634e487b7160e01b600052603260045260246000fd5b634e487b7160e01b600052601160045260246000fd5b600060018201612cac57612cac612c84565b5060010190565b808201808211156105a9576105a9612c84565b60008151612cd88185602086016125c1565b9290920192915050565b683d913730b6b2911d1160b91b81528551600090612d07816009850160208b016125c1565b61088b60f21b60099184019182018190526e113232b9b1b934b83a34b7b7111d1160891b600b8301528751612d4381601a850160208c016125c1565b601a9201918201819052731130b1b434b2bb32b6b2b73a2fba3cb832911d1160611b601c8301528651612d7d816030850160208b016125c1565b60309201918201526b113a34b6b2b9ba30b6b8111d60a11b6032820152612dea612ddd612dd7612dc0612db3603e86018a612cc6565b600b60fa1b815260010190565b6a113b32b934b334b2b2111d60a91b8152600b0190565b86612cc6565b607d60f81b815260010190565b98975050505050505050565b601f82111561092257600081815260208120601f850160051c81016020861015612e1d5750805b601f850160051c820191505b81811015612e3c57828155600101612e29565b505050505050565b815167ffffffffffffffff811115612e5e57612e5e6127be565b612e7281612e6c8454612bee565b84612df6565b602080601f831160018114612ea75760008415612e8f5750858301515b600019600386901b1c1916600185901b178555612e3c565b600085815260208120601f198616915b82811015612ed657888601518255948401946001909101908401612eb7565b5085821015612ef45787850151600019600388901b60f8161c191681555b5050505050600190811b01905550565b604081526000612f1760408301856125e5565b8281036020840152612f2981856125e5565b95945050505050565b634e487b7160e01b600052601260045260246000fd5b600082612f5757612f57612f32565b500490565b818103818111156105a9576105a9612c84565b600082612f7e57612f7e612f32565b500690565b7f416363657373436f6e74726f6c3a206163636f756e7420000000000000000000815260008351612fbb8160178501602088016125c1565b7001034b99036b4b9b9b4b733903937b6329607d1b6017918401918201528351612fec8160288401602088016125c1565b01602801949350505050565b60208082526032908201527f4552433732313a207472616e7366657220746f206e6f6e20455243373231526560408201527131b2b4bb32b91034b6b83632b6b2b73a32b960711b606082015260800190565b80820281158282048414176105a9576105a9612c84565b60008161307057613070612c84565b506000190190565b6001600160a01b03858116825284166020820152604081018390526080606082018190526000906130ab908301846125e5565b9695505050505050565b6000602082840312156130c757600080fd5b81516122c18161258e56fea49807205ce4d355092ef5a8a18f56e8913cf4a201fbe287825b095693c21775a2646970667358221220511bfa92c1753a47a3d7a002fd4f6d98e5821cb7a3e7fa39f4badca42c74718c64736f6c63430008130033",
  "linkReferences": {},
  "deployedLinkReferences": {}
}